{
  "contracts/staking.sol": {
    "Staking": {
      "abi": [
        {
          "inputs": [
            {
              "internalType": "address",
              "name": "_stakeTokenAddress",
              "type": "address"
            },
            {
              "internalType": "address",
              "name": "_marketingWalletAddress",
              "type": "address"
            }
          ],
          "stateMutability": "nonpayable",
          "type": "constructor"
        },
        {
          "inputs": [],
          "name": "marketingWalletAddress",
          "outputs": [
            {
              "internalType": "address",
              "name": "",
              "type": "address"
            }
          ],
          "stateMutability": "view",
          "type": "function"
        },
        {
          "inputs": [],
          "name": "nowUnixTime",
          "outputs": [
            {
              "internalType": "uint256",
              "name": "",
              "type": "uint256"
            }
          ],
          "stateMutability": "view",
          "type": "function"
        },
        {
          "inputs": [
            {
              "internalType": "address",
              "name": "_sender",
              "type": "address"
            }
          ],
          "name": "periodOf",
          "outputs": [
            {
              "internalType": "uint256",
              "name": "",
              "type": "uint256"
            }
          ],
          "stateMutability": "view",
          "type": "function"
        },
        {
          "inputs": [
            {
              "internalType": "address",
              "name": "_sender",
              "type": "address"
            }
          ],
          "name": "rewardOf",
          "outputs": [
            {
              "internalType": "uint256",
              "name": "",
              "type": "uint256"
            }
          ],
          "stateMutability": "view",
          "type": "function"
        },
        {
          "inputs": [
            {
              "internalType": "uint256",
              "name": "_period",
              "type": "uint256"
            },
            {
              "internalType": "uint256",
              "name": "_stakes",
              "type": "uint256"
            }
          ],
          "name": "stake",
          "outputs": [],
          "stateMutability": "nonpayable",
          "type": "function"
        },
        {
          "inputs": [
            {
              "internalType": "address",
              "name": "_sender",
              "type": "address"
            }
          ],
          "name": "stakeOf",
          "outputs": [
            {
              "internalType": "uint256",
              "name": "",
              "type": "uint256"
            }
          ],
          "stateMutability": "view",
          "type": "function"
        },
        {
          "inputs": [],
          "name": "stakeTokenAddress",
          "outputs": [
            {
              "internalType": "address",
              "name": "",
              "type": "address"
            }
          ],
          "stateMutability": "view",
          "type": "function"
        },
        {
          "inputs": [
            {
              "internalType": "address",
              "name": "",
              "type": "address"
            }
          ],
          "name": "stakers",
          "outputs": [
            {
              "internalType": "address",
              "name": "stakeAddress",
              "type": "address"
            },
            {
              "internalType": "uint256",
              "name": "stakingDate",
              "type": "uint256"
            },
            {
              "internalType": "uint256",
              "name": "period",
              "type": "uint256"
            },
            {
              "internalType": "uint256",
              "name": "stakes",
              "type": "uint256"
            },
            {
              "internalType": "uint256",
              "name": "rewards",
              "type": "uint256"
            }
          ],
          "stateMutability": "view",
          "type": "function"
        },
        {
          "inputs": [
            {
              "internalType": "address",
              "name": "_sender",
              "type": "address"
            }
          ],
          "name": "stakingDateOf",
          "outputs": [
            {
              "internalType": "uint256",
              "name": "",
              "type": "uint256"
            }
          ],
          "stateMutability": "view",
          "type": "function"
        },
        {
          "inputs": [],
          "name": "unstake",
          "outputs": [],
          "stateMutability": "nonpayable",
          "type": "function"
        }
      ],
      "devdoc": {
        "kind": "dev",
        "methods": {},
        "version": 1
      },
      "evm": {
        "bytecode": {
          "linkReferences": {},
          "object": "608060405234801561001057600080fd5b50604051610d3f380380610d3f83398101604081905261002f9161007c565b600280546001600160a01b039384166001600160a01b031991821617909155600180549290931691161790556100ae565b80516001600160a01b038116811461007757600080fd5b919050565b6000806040838503121561008e578182fd5b61009783610060565b91506100a560208401610060565b90509250929050565b610c82806100bd6000396000f3fe608060405234801561001057600080fd5b506004361061009e5760003560e01c8063426233601161006657806342623360146101245780637b0472f0146101375780639168ae721461014a578063c25eede5146101c3578063d158272d146101c957600080fd5b80630106395f146100a3578063109496ff146100d35780631d62ebd9146100f45780632def6620146101075780632fc83b2e14610111575b600080fd5b6002546100b6906001600160a01b031681565b6040516001600160a01b0390911681526020015b60405180910390f35b6100e66100e1366004610ae5565b6101dc565b6040519081526020016100ca565b6100e6610102366004610ae5565b610233565b61010f610281565b005b6100e661011f366004610ae5565b61063e565b6100e6610132366004610ae5565b61068c565b61010f610145366004610b2c565b6106da565b610191610158366004610ae5565b600060208190529081526040902080546001820154600283015460038401546004909401546001600160a01b0390931693919290919085565b604080516001600160a01b0390961686526020860194909452928401919091526060830152608082015260a0016100ca565b426100e6565b6001546100b6906001600160a01b031681565b336000908152602081905260408120600101546102145760405162461bcd60e51b815260040161020b90610b99565b60405180910390fd5b506001600160a01b031660009081526020819052604090206001015490565b336000908152602081905260408120600101546102625760405162461bcd60e51b815260040161020b90610b99565b506001600160a01b031660009081526020819052604090206004015490565b336000908152602081905260409020600101546102f05760405162461bcd60e51b815260206004820152602760248201527f54686973207374616b696e6720666f7220746869732061646472657373206e6f6044820152661d08195e1a5cdd60ca1b606482015260840161020b565b60006102fb3361063e565b9050426000610309336101dc565b905060006103163361068c565b9050600061032333610233565b905061033c601861033687610e106107a4565b906107a4565b6103468486610c1f565b1015610592576203f48061035a8486610c1f565b106104c1576002546001600160a01b031663a9059cbb33610389612710610383876124b86107a4565b90610811565b6040516001600160e01b031960e085901b1681526001600160a01b0390921660048301526024820152604401602060405180830381600087803b1580156103cf57600080fd5b505af11580156103e3573d6000803e3d6000fd5b505050506040513d601f19601f820116820180604052508101906104079190610b0c565b506002546001546001600160a01b039182169163a9059cbb911661043d610436612710610383886124b86107a4565b869061086a565b6040516001600160e01b031960e085901b1681526001600160a01b0390921660048301526024820152604401602060405180830381600087803b15801561048357600080fd5b505af1158015610497573d6000803e3d6000fd5b505050506040513d601f19601f820116820180604052508101906104bb9190610b0c565b5061062e565b6002546001600160a01b031663a9059cbb336104e56127106103838761238c6107a4565b6040516001600160e01b031960e085901b1681526001600160a01b0390921660048301526024820152604401602060405180830381600087803b15801561052b57600080fd5b505af115801561053f573d6000803e3d6000fd5b505050506040513d601f19601f820116820180604052508101906105639190610b0c565b506002546001546001600160a01b039182169163a9059cbb911661043d6104366127106103838861238c6107a4565b6002546001600160a01b031663a9059cbb336105ae85856108c0565b6040516001600160e01b031960e085901b1681526001600160a01b0390921660048301526024820152604401602060405180830381600087803b1580156105f457600080fd5b505af1158015610608573d6000803e3d6000fd5b505050506040513d601f19601f8201168201806040525081019061062c9190610b0c565b505b61063733610915565b5050505050565b3360009081526020819052604081206001015461066d5760405162461bcd60e51b815260040161020b90610b99565b506001600160a01b031660009081526020819052604090206002015490565b336000908152602081905260408120600101546106bb5760405162461bcd60e51b815260040161020b90610b99565b506001600160a01b031660009081526020819052604090206003015490565b336000908152602081905260409020600101541561070a5760405162461bcd60e51b815260040161020b90610b4d565b6002546040516323b872dd60e01b8152336004820152306024820152604481018390526001600160a01b03909116906323b872dd90606401602060405180830381600087803b15801561075c57600080fd5b505af1158015610770573d6000803e3d6000fd5b505050506040513d601f19601f820116820180604052508101906107949190610b0c565b506107a03383836109b4565b5050565b60008115806107c8575082826107ba8183610c00565b92506107c69083610be0565b145b61080b5760405162461bcd60e51b815260206004820152601460248201527364732d6d6174682d6d756c2d6f766572666c6f7760601b604482015260640161020b565b92915050565b60008082116108595760405162461bcd60e51b815260206004820152601460248201527364732d6d6174682d6d756c2d6f766572666c6f7760601b604482015260640161020b565b6108638284610be0565b9392505050565b6000826108778382610c1f565b915081111561080b5760405162461bcd60e51b815260206004820152601560248201527464732d6d6174682d7375622d756e646572666c6f7760581b604482015260640161020b565b6000826108cd8382610bc8565b915081101561080b5760405162461bcd60e51b815260206004820152601460248201527364732d6d6174682d6164642d6f766572666c6f7760601b604482015260640161020b565b336000908152602081905260409020600101546109745760405162461bcd60e51b815260206004820152601760248201527f546869732061646472657373206e6f742065786973742e000000000000000000604482015260640161020b565b6001600160a01b0316600090815260208190526040812080546001600160a01b031916815560018101829055600281018290556003810182905560040155565b33600090815260208190526040902060010154156109e45760405162461bcd60e51b815260040161020b90610b4d565b60006109f08383610a63565b6040805160a0810182526001600160a01b0396871680825242602080840191825283850198895260608401978852608084019586526000928352829052929020905181546001600160a01b0319169716969096178655516001860155925160028501555051600383015551600490910155565b6000610a766127106103838460786107a4565b90508260071415610a865761080b565b82601e1415610abc57610ab5610aa4612710610383856101f46107a4565b610aaf8360046107a4565b906108c0565b905061080b565b82605a141561080b57610863610ada612710610383856107d06107a4565b610aaf83600d6107a4565b600060208284031215610af6578081fd5b81356001600160a01b0381168114610863578182fd5b600060208284031215610b1d578081fd5b81518015158114610863578182fd5b60008060408385031215610b3e578081fd5b50508035926020909101359150565b6020808252602c908201527f54686973207374616b696e6720666f722074686973206164647265737320616c60408201526b3932b0b23c9032bc34b9ba1760a11b606082015260800190565b602080825260159082015274151a1a5cc81cdd185ad95c881b9bdd08195e1a5cdd605a1b604082015260600190565b60008219821115610bdb57610bdb610c36565b500190565b600082610bfb57634e487b7160e01b81526012600452602481fd5b500490565b6000816000190483118215151615610c1a57610c1a610c36565b500290565b600082821015610c3157610c31610c36565b500390565b634e487b7160e01b600052601160045260246000fdfea2646970667358221220ef08dc6c0f28cbdc4cdc14508e5dff07172731eb4d5de108193eff2a9c6601af64736f6c63430008040033",
          "opcodes": "PUSH1 0x80 PUSH1 0x40 MSTORE CALLVALUE DUP1 ISZERO PUSH2 0x10 JUMPI PUSH1 0x0 DUP1 REVERT JUMPDEST POP PUSH1 0x40 MLOAD PUSH2 0xD3F CODESIZE SUB DUP1 PUSH2 0xD3F DUP4 CODECOPY DUP2 ADD PUSH1 0x40 DUP2 SWAP1 MSTORE PUSH2 0x2F SWAP2 PUSH2 0x7C JUMP JUMPDEST PUSH1 0x2 DUP1 SLOAD PUSH1 0x1 PUSH1 0x1 PUSH1 0xA0 SHL SUB SWAP4 DUP5 AND PUSH1 0x1 PUSH1 0x1 PUSH1 0xA0 SHL SUB NOT SWAP2 DUP3 AND OR SWAP1 SWAP2 SSTORE PUSH1 0x1 DUP1 SLOAD SWAP3 SWAP1 SWAP4 AND SWAP2 AND OR SWAP1 SSTORE PUSH2 0xAE JUMP JUMPDEST DUP1 MLOAD PUSH1 0x1 PUSH1 0x1 PUSH1 0xA0 SHL SUB DUP2 AND DUP2 EQ PUSH2 0x77 JUMPI PUSH1 0x0 DUP1 REVERT JUMPDEST SWAP2 SWAP1 POP JUMP JUMPDEST PUSH1 0x0 DUP1 PUSH1 0x40 DUP4 DUP6 SUB SLT ISZERO PUSH2 0x8E JUMPI DUP2 DUP3 REVERT JUMPDEST PUSH2 0x97 DUP4 PUSH2 0x60 JUMP JUMPDEST SWAP2 POP PUSH2 0xA5 PUSH1 0x20 DUP5 ADD PUSH2 0x60 JUMP JUMPDEST SWAP1 POP SWAP3 POP SWAP3 SWAP1 POP JUMP JUMPDEST PUSH2 0xC82 DUP1 PUSH2 0xBD PUSH1 0x0 CODECOPY PUSH1 0x0 RETURN INVALID PUSH1 0x80 PUSH1 0x40 MSTORE CALLVALUE DUP1 ISZERO PUSH2 0x10 JUMPI PUSH1 0x0 DUP1 REVERT JUMPDEST POP PUSH1 0x4 CALLDATASIZE LT PUSH2 0x9E JUMPI PUSH1 0x0 CALLDATALOAD PUSH1 0xE0 SHR DUP1 PUSH4 0x42623360 GT PUSH2 0x66 JUMPI DUP1 PUSH4 0x42623360 EQ PUSH2 0x124 JUMPI DUP1 PUSH4 0x7B0472F0 EQ PUSH2 0x137 JUMPI DUP1 PUSH4 0x9168AE72 EQ PUSH2 0x14A JUMPI DUP1 PUSH4 0xC25EEDE5 EQ PUSH2 0x1C3 JUMPI DUP1 PUSH4 0xD158272D EQ PUSH2 0x1C9 JUMPI PUSH1 0x0 DUP1 REVERT JUMPDEST DUP1 PUSH4 0x106395F EQ PUSH2 0xA3 JUMPI DUP1 PUSH4 0x109496FF EQ PUSH2 0xD3 JUMPI DUP1 PUSH4 0x1D62EBD9 EQ PUSH2 0xF4 JUMPI DUP1 PUSH4 0x2DEF6620 EQ PUSH2 0x107 JUMPI DUP1 PUSH4 0x2FC83B2E EQ PUSH2 0x111 JUMPI JUMPDEST PUSH1 0x0 DUP1 REVERT JUMPDEST PUSH1 0x2 SLOAD PUSH2 0xB6 SWAP1 PUSH1 0x1 PUSH1 0x1 PUSH1 0xA0 SHL SUB AND DUP2 JUMP JUMPDEST PUSH1 0x40 MLOAD PUSH1 0x1 PUSH1 0x1 PUSH1 0xA0 SHL SUB SWAP1 SWAP2 AND DUP2 MSTORE PUSH1 0x20 ADD JUMPDEST PUSH1 0x40 MLOAD DUP1 SWAP2 SUB SWAP1 RETURN JUMPDEST PUSH2 0xE6 PUSH2 0xE1 CALLDATASIZE PUSH1 0x4 PUSH2 0xAE5 JUMP JUMPDEST PUSH2 0x1DC JUMP JUMPDEST PUSH1 0x40 MLOAD SWAP1 DUP2 MSTORE PUSH1 0x20 ADD PUSH2 0xCA JUMP JUMPDEST PUSH2 0xE6 PUSH2 0x102 CALLDATASIZE PUSH1 0x4 PUSH2 0xAE5 JUMP JUMPDEST PUSH2 0x233 JUMP JUMPDEST PUSH2 0x10F PUSH2 0x281 JUMP JUMPDEST STOP JUMPDEST PUSH2 0xE6 PUSH2 0x11F CALLDATASIZE PUSH1 0x4 PUSH2 0xAE5 JUMP JUMPDEST PUSH2 0x63E JUMP JUMPDEST PUSH2 0xE6 PUSH2 0x132 CALLDATASIZE PUSH1 0x4 PUSH2 0xAE5 JUMP JUMPDEST PUSH2 0x68C JUMP JUMPDEST PUSH2 0x10F PUSH2 0x145 CALLDATASIZE PUSH1 0x4 PUSH2 0xB2C JUMP JUMPDEST PUSH2 0x6DA JUMP JUMPDEST PUSH2 0x191 PUSH2 0x158 CALLDATASIZE PUSH1 0x4 PUSH2 0xAE5 JUMP JUMPDEST PUSH1 0x0 PUSH1 0x20 DUP2 SWAP1 MSTORE SWAP1 DUP2 MSTORE PUSH1 0x40 SWAP1 KECCAK256 DUP1 SLOAD PUSH1 0x1 DUP3 ADD SLOAD PUSH1 0x2 DUP4 ADD SLOAD PUSH1 0x3 DUP5 ADD SLOAD PUSH1 0x4 SWAP1 SWAP5 ADD SLOAD PUSH1 0x1 PUSH1 0x1 PUSH1 0xA0 SHL SUB SWAP1 SWAP4 AND SWAP4 SWAP2 SWAP3 SWAP1 SWAP2 SWAP1 DUP6 JUMP JUMPDEST PUSH1 0x40 DUP1 MLOAD PUSH1 0x1 PUSH1 0x1 PUSH1 0xA0 SHL SUB SWAP1 SWAP7 AND DUP7 MSTORE PUSH1 0x20 DUP7 ADD SWAP5 SWAP1 SWAP5 MSTORE SWAP3 DUP5 ADD SWAP2 SWAP1 SWAP2 MSTORE PUSH1 0x60 DUP4 ADD MSTORE PUSH1 0x80 DUP3 ADD MSTORE PUSH1 0xA0 ADD PUSH2 0xCA JUMP JUMPDEST TIMESTAMP PUSH2 0xE6 JUMP JUMPDEST PUSH1 0x1 SLOAD PUSH2 0xB6 SWAP1 PUSH1 0x1 PUSH1 0x1 PUSH1 0xA0 SHL SUB AND DUP2 JUMP JUMPDEST CALLER PUSH1 0x0 SWAP1 DUP2 MSTORE PUSH1 0x20 DUP2 SWAP1 MSTORE PUSH1 0x40 DUP2 KECCAK256 PUSH1 0x1 ADD SLOAD PUSH2 0x214 JUMPI PUSH1 0x40 MLOAD PUSH3 0x461BCD PUSH1 0xE5 SHL DUP2 MSTORE PUSH1 0x4 ADD PUSH2 0x20B SWAP1 PUSH2 0xB99 JUMP JUMPDEST PUSH1 0x40 MLOAD DUP1 SWAP2 SUB SWAP1 REVERT JUMPDEST POP PUSH1 0x1 PUSH1 0x1 PUSH1 0xA0 SHL SUB AND PUSH1 0x0 SWAP1 DUP2 MSTORE PUSH1 0x20 DUP2 SWAP1 MSTORE PUSH1 0x40 SWAP1 KECCAK256 PUSH1 0x1 ADD SLOAD SWAP1 JUMP JUMPDEST CALLER PUSH1 0x0 SWAP1 DUP2 MSTORE PUSH1 0x20 DUP2 SWAP1 MSTORE PUSH1 0x40 DUP2 KECCAK256 PUSH1 0x1 ADD SLOAD PUSH2 0x262 JUMPI PUSH1 0x40 MLOAD PUSH3 0x461BCD PUSH1 0xE5 SHL DUP2 MSTORE PUSH1 0x4 ADD PUSH2 0x20B SWAP1 PUSH2 0xB99 JUMP JUMPDEST POP PUSH1 0x1 PUSH1 0x1 PUSH1 0xA0 SHL SUB AND PUSH1 0x0 SWAP1 DUP2 MSTORE PUSH1 0x20 DUP2 SWAP1 MSTORE PUSH1 0x40 SWAP1 KECCAK256 PUSH1 0x4 ADD SLOAD SWAP1 JUMP JUMPDEST CALLER PUSH1 0x0 SWAP1 DUP2 MSTORE PUSH1 0x20 DUP2 SWAP1 MSTORE PUSH1 0x40 SWAP1 KECCAK256 PUSH1 0x1 ADD SLOAD PUSH2 0x2F0 JUMPI PUSH1 0x40 MLOAD PUSH3 0x461BCD PUSH1 0xE5 SHL DUP2 MSTORE PUSH1 0x20 PUSH1 0x4 DUP3 ADD MSTORE PUSH1 0x27 PUSH1 0x24 DUP3 ADD MSTORE PUSH32 0x54686973207374616B696E6720666F7220746869732061646472657373206E6F PUSH1 0x44 DUP3 ADD MSTORE PUSH7 0x1D08195E1A5CDD PUSH1 0xCA SHL PUSH1 0x64 DUP3 ADD MSTORE PUSH1 0x84 ADD PUSH2 0x20B JUMP JUMPDEST PUSH1 0x0 PUSH2 0x2FB CALLER PUSH2 0x63E JUMP JUMPDEST SWAP1 POP TIMESTAMP PUSH1 0x0 PUSH2 0x309 CALLER PUSH2 0x1DC JUMP JUMPDEST SWAP1 POP PUSH1 0x0 PUSH2 0x316 CALLER PUSH2 0x68C JUMP JUMPDEST SWAP1 POP PUSH1 0x0 PUSH2 0x323 CALLER PUSH2 0x233 JUMP JUMPDEST SWAP1 POP PUSH2 0x33C PUSH1 0x18 PUSH2 0x336 DUP8 PUSH2 0xE10 PUSH2 0x7A4 JUMP JUMPDEST SWAP1 PUSH2 0x7A4 JUMP JUMPDEST PUSH2 0x346 DUP5 DUP7 PUSH2 0xC1F JUMP JUMPDEST LT ISZERO PUSH2 0x592 JUMPI PUSH3 0x3F480 PUSH2 0x35A DUP5 DUP7 PUSH2 0xC1F JUMP JUMPDEST LT PUSH2 0x4C1 JUMPI PUSH1 0x2 SLOAD PUSH1 0x1 PUSH1 0x1 PUSH1 0xA0 SHL SUB AND PUSH4 0xA9059CBB CALLER PUSH2 0x389 PUSH2 0x2710 PUSH2 0x383 DUP8 PUSH2 0x24B8 PUSH2 0x7A4 JUMP JUMPDEST SWAP1 PUSH2 0x811 JUMP JUMPDEST PUSH1 0x40 MLOAD PUSH1 0x1 PUSH1 0x1 PUSH1 0xE0 SHL SUB NOT PUSH1 0xE0 DUP6 SWAP1 SHL AND DUP2 MSTORE PUSH1 0x1 PUSH1 0x1 PUSH1 0xA0 SHL SUB SWAP1 SWAP3 AND PUSH1 0x4 DUP4 ADD MSTORE PUSH1 0x24 DUP3 ADD MSTORE PUSH1 0x44 ADD PUSH1 0x20 PUSH1 0x40 MLOAD DUP1 DUP4 SUB DUP2 PUSH1 0x0 DUP8 DUP1 EXTCODESIZE ISZERO DUP1 ISZERO PUSH2 0x3CF JUMPI PUSH1 0x0 DUP1 REVERT JUMPDEST POP GAS CALL ISZERO DUP1 ISZERO PUSH2 0x3E3 JUMPI RETURNDATASIZE PUSH1 0x0 DUP1 RETURNDATACOPY RETURNDATASIZE PUSH1 0x0 REVERT JUMPDEST POP POP POP POP PUSH1 0x40 MLOAD RETURNDATASIZE PUSH1 0x1F NOT PUSH1 0x1F DUP3 ADD AND DUP3 ADD DUP1 PUSH1 0x40 MSTORE POP DUP2 ADD SWAP1 PUSH2 0x407 SWAP2 SWAP1 PUSH2 0xB0C JUMP JUMPDEST POP PUSH1 0x2 SLOAD PUSH1 0x1 SLOAD PUSH1 0x1 PUSH1 0x1 PUSH1 0xA0 SHL SUB SWAP2 DUP3 AND SWAP2 PUSH4 0xA9059CBB SWAP2 AND PUSH2 0x43D PUSH2 0x436 PUSH2 0x2710 PUSH2 0x383 DUP9 PUSH2 0x24B8 PUSH2 0x7A4 JUMP JUMPDEST DUP7 SWAP1 PUSH2 0x86A JUMP JUMPDEST PUSH1 0x40 MLOAD PUSH1 0x1 PUSH1 0x1 PUSH1 0xE0 SHL SUB NOT PUSH1 0xE0 DUP6 SWAP1 SHL AND DUP2 MSTORE PUSH1 0x1 PUSH1 0x1 PUSH1 0xA0 SHL SUB SWAP1 SWAP3 AND PUSH1 0x4 DUP4 ADD MSTORE PUSH1 0x24 DUP3 ADD MSTORE PUSH1 0x44 ADD PUSH1 0x20 PUSH1 0x40 MLOAD DUP1 DUP4 SUB DUP2 PUSH1 0x0 DUP8 DUP1 EXTCODESIZE ISZERO DUP1 ISZERO PUSH2 0x483 JUMPI PUSH1 0x0 DUP1 REVERT JUMPDEST POP GAS CALL ISZERO DUP1 ISZERO PUSH2 0x497 JUMPI RETURNDATASIZE PUSH1 0x0 DUP1 RETURNDATACOPY RETURNDATASIZE PUSH1 0x0 REVERT JUMPDEST POP POP POP POP PUSH1 0x40 MLOAD RETURNDATASIZE PUSH1 0x1F NOT PUSH1 0x1F DUP3 ADD AND DUP3 ADD DUP1 PUSH1 0x40 MSTORE POP DUP2 ADD SWAP1 PUSH2 0x4BB SWAP2 SWAP1 PUSH2 0xB0C JUMP JUMPDEST POP PUSH2 0x62E JUMP JUMPDEST PUSH1 0x2 SLOAD PUSH1 0x1 PUSH1 0x1 PUSH1 0xA0 SHL SUB AND PUSH4 0xA9059CBB CALLER PUSH2 0x4E5 PUSH2 0x2710 PUSH2 0x383 DUP8 PUSH2 0x238C PUSH2 0x7A4 JUMP JUMPDEST PUSH1 0x40 MLOAD PUSH1 0x1 PUSH1 0x1 PUSH1 0xE0 SHL SUB NOT PUSH1 0xE0 DUP6 SWAP1 SHL AND DUP2 MSTORE PUSH1 0x1 PUSH1 0x1 PUSH1 0xA0 SHL SUB SWAP1 SWAP3 AND PUSH1 0x4 DUP4 ADD MSTORE PUSH1 0x24 DUP3 ADD MSTORE PUSH1 0x44 ADD PUSH1 0x20 PUSH1 0x40 MLOAD DUP1 DUP4 SUB DUP2 PUSH1 0x0 DUP8 DUP1 EXTCODESIZE ISZERO DUP1 ISZERO PUSH2 0x52B JUMPI PUSH1 0x0 DUP1 REVERT JUMPDEST POP GAS CALL ISZERO DUP1 ISZERO PUSH2 0x53F JUMPI RETURNDATASIZE PUSH1 0x0 DUP1 RETURNDATACOPY RETURNDATASIZE PUSH1 0x0 REVERT JUMPDEST POP POP POP POP PUSH1 0x40 MLOAD RETURNDATASIZE PUSH1 0x1F NOT PUSH1 0x1F DUP3 ADD AND DUP3 ADD DUP1 PUSH1 0x40 MSTORE POP DUP2 ADD SWAP1 PUSH2 0x563 SWAP2 SWAP1 PUSH2 0xB0C JUMP JUMPDEST POP PUSH1 0x2 SLOAD PUSH1 0x1 SLOAD PUSH1 0x1 PUSH1 0x1 PUSH1 0xA0 SHL SUB SWAP2 DUP3 AND SWAP2 PUSH4 0xA9059CBB SWAP2 AND PUSH2 0x43D PUSH2 0x436 PUSH2 0x2710 PUSH2 0x383 DUP9 PUSH2 0x238C PUSH2 0x7A4 JUMP JUMPDEST PUSH1 0x2 SLOAD PUSH1 0x1 PUSH1 0x1 PUSH1 0xA0 SHL SUB AND PUSH4 0xA9059CBB CALLER PUSH2 0x5AE DUP6 DUP6 PUSH2 0x8C0 JUMP JUMPDEST PUSH1 0x40 MLOAD PUSH1 0x1 PUSH1 0x1 PUSH1 0xE0 SHL SUB NOT PUSH1 0xE0 DUP6 SWAP1 SHL AND DUP2 MSTORE PUSH1 0x1 PUSH1 0x1 PUSH1 0xA0 SHL SUB SWAP1 SWAP3 AND PUSH1 0x4 DUP4 ADD MSTORE PUSH1 0x24 DUP3 ADD MSTORE PUSH1 0x44 ADD PUSH1 0x20 PUSH1 0x40 MLOAD DUP1 DUP4 SUB DUP2 PUSH1 0x0 DUP8 DUP1 EXTCODESIZE ISZERO DUP1 ISZERO PUSH2 0x5F4 JUMPI PUSH1 0x0 DUP1 REVERT JUMPDEST POP GAS CALL ISZERO DUP1 ISZERO PUSH2 0x608 JUMPI RETURNDATASIZE PUSH1 0x0 DUP1 RETURNDATACOPY RETURNDATASIZE PUSH1 0x0 REVERT JUMPDEST POP POP POP POP PUSH1 0x40 MLOAD RETURNDATASIZE PUSH1 0x1F NOT PUSH1 0x1F DUP3 ADD AND DUP3 ADD DUP1 PUSH1 0x40 MSTORE POP DUP2 ADD SWAP1 PUSH2 0x62C SWAP2 SWAP1 PUSH2 0xB0C JUMP JUMPDEST POP JUMPDEST PUSH2 0x637 CALLER PUSH2 0x915 JUMP JUMPDEST POP POP POP POP POP JUMP JUMPDEST CALLER PUSH1 0x0 SWAP1 DUP2 MSTORE PUSH1 0x20 DUP2 SWAP1 MSTORE PUSH1 0x40 DUP2 KECCAK256 PUSH1 0x1 ADD SLOAD PUSH2 0x66D JUMPI PUSH1 0x40 MLOAD PUSH3 0x461BCD PUSH1 0xE5 SHL DUP2 MSTORE PUSH1 0x4 ADD PUSH2 0x20B SWAP1 PUSH2 0xB99 JUMP JUMPDEST POP PUSH1 0x1 PUSH1 0x1 PUSH1 0xA0 SHL SUB AND PUSH1 0x0 SWAP1 DUP2 MSTORE PUSH1 0x20 DUP2 SWAP1 MSTORE PUSH1 0x40 SWAP1 KECCAK256 PUSH1 0x2 ADD SLOAD SWAP1 JUMP JUMPDEST CALLER PUSH1 0x0 SWAP1 DUP2 MSTORE PUSH1 0x20 DUP2 SWAP1 MSTORE PUSH1 0x40 DUP2 KECCAK256 PUSH1 0x1 ADD SLOAD PUSH2 0x6BB JUMPI PUSH1 0x40 MLOAD PUSH3 0x461BCD PUSH1 0xE5 SHL DUP2 MSTORE PUSH1 0x4 ADD PUSH2 0x20B SWAP1 PUSH2 0xB99 JUMP JUMPDEST POP PUSH1 0x1 PUSH1 0x1 PUSH1 0xA0 SHL SUB AND PUSH1 0x0 SWAP1 DUP2 MSTORE PUSH1 0x20 DUP2 SWAP1 MSTORE PUSH1 0x40 SWAP1 KECCAK256 PUSH1 0x3 ADD SLOAD SWAP1 JUMP JUMPDEST CALLER PUSH1 0x0 SWAP1 DUP2 MSTORE PUSH1 0x20 DUP2 SWAP1 MSTORE PUSH1 0x40 SWAP1 KECCAK256 PUSH1 0x1 ADD SLOAD ISZERO PUSH2 0x70A JUMPI PUSH1 0x40 MLOAD PUSH3 0x461BCD PUSH1 0xE5 SHL DUP2 MSTORE PUSH1 0x4 ADD PUSH2 0x20B SWAP1 PUSH2 0xB4D JUMP JUMPDEST PUSH1 0x2 SLOAD PUSH1 0x40 MLOAD PUSH4 0x23B872DD PUSH1 0xE0 SHL DUP2 MSTORE CALLER PUSH1 0x4 DUP3 ADD MSTORE ADDRESS PUSH1 0x24 DUP3 ADD MSTORE PUSH1 0x44 DUP2 ADD DUP4 SWAP1 MSTORE PUSH1 0x1 PUSH1 0x1 PUSH1 0xA0 SHL SUB SWAP1 SWAP2 AND SWAP1 PUSH4 0x23B872DD SWAP1 PUSH1 0x64 ADD PUSH1 0x20 PUSH1 0x40 MLOAD DUP1 DUP4 SUB DUP2 PUSH1 0x0 DUP8 DUP1 EXTCODESIZE ISZERO DUP1 ISZERO PUSH2 0x75C JUMPI PUSH1 0x0 DUP1 REVERT JUMPDEST POP GAS CALL ISZERO DUP1 ISZERO PUSH2 0x770 JUMPI RETURNDATASIZE PUSH1 0x0 DUP1 RETURNDATACOPY RETURNDATASIZE PUSH1 0x0 REVERT JUMPDEST POP POP POP POP PUSH1 0x40 MLOAD RETURNDATASIZE PUSH1 0x1F NOT PUSH1 0x1F DUP3 ADD AND DUP3 ADD DUP1 PUSH1 0x40 MSTORE POP DUP2 ADD SWAP1 PUSH2 0x794 SWAP2 SWAP1 PUSH2 0xB0C JUMP JUMPDEST POP PUSH2 0x7A0 CALLER DUP4 DUP4 PUSH2 0x9B4 JUMP JUMPDEST POP POP JUMP JUMPDEST PUSH1 0x0 DUP2 ISZERO DUP1 PUSH2 0x7C8 JUMPI POP DUP3 DUP3 PUSH2 0x7BA DUP2 DUP4 PUSH2 0xC00 JUMP JUMPDEST SWAP3 POP PUSH2 0x7C6 SWAP1 DUP4 PUSH2 0xBE0 JUMP JUMPDEST EQ JUMPDEST PUSH2 0x80B JUMPI PUSH1 0x40 MLOAD PUSH3 0x461BCD PUSH1 0xE5 SHL DUP2 MSTORE PUSH1 0x20 PUSH1 0x4 DUP3 ADD MSTORE PUSH1 0x14 PUSH1 0x24 DUP3 ADD MSTORE PUSH20 0x64732D6D6174682D6D756C2D6F766572666C6F77 PUSH1 0x60 SHL PUSH1 0x44 DUP3 ADD MSTORE PUSH1 0x64 ADD PUSH2 0x20B JUMP JUMPDEST SWAP3 SWAP2 POP POP JUMP JUMPDEST PUSH1 0x0 DUP1 DUP3 GT PUSH2 0x859 JUMPI PUSH1 0x40 MLOAD PUSH3 0x461BCD PUSH1 0xE5 SHL DUP2 MSTORE PUSH1 0x20 PUSH1 0x4 DUP3 ADD MSTORE PUSH1 0x14 PUSH1 0x24 DUP3 ADD MSTORE PUSH20 0x64732D6D6174682D6D756C2D6F766572666C6F77 PUSH1 0x60 SHL PUSH1 0x44 DUP3 ADD MSTORE PUSH1 0x64 ADD PUSH2 0x20B JUMP JUMPDEST PUSH2 0x863 DUP3 DUP5 PUSH2 0xBE0 JUMP JUMPDEST SWAP4 SWAP3 POP POP POP JUMP JUMPDEST PUSH1 0x0 DUP3 PUSH2 0x877 DUP4 DUP3 PUSH2 0xC1F JUMP JUMPDEST SWAP2 POP DUP2 GT ISZERO PUSH2 0x80B JUMPI PUSH1 0x40 MLOAD PUSH3 0x461BCD PUSH1 0xE5 SHL DUP2 MSTORE PUSH1 0x20 PUSH1 0x4 DUP3 ADD MSTORE PUSH1 0x15 PUSH1 0x24 DUP3 ADD MSTORE PUSH21 0x64732D6D6174682D7375622D756E646572666C6F77 PUSH1 0x58 SHL PUSH1 0x44 DUP3 ADD MSTORE PUSH1 0x64 ADD PUSH2 0x20B JUMP JUMPDEST PUSH1 0x0 DUP3 PUSH2 0x8CD DUP4 DUP3 PUSH2 0xBC8 JUMP JUMPDEST SWAP2 POP DUP2 LT ISZERO PUSH2 0x80B JUMPI PUSH1 0x40 MLOAD PUSH3 0x461BCD PUSH1 0xE5 SHL DUP2 MSTORE PUSH1 0x20 PUSH1 0x4 DUP3 ADD MSTORE PUSH1 0x14 PUSH1 0x24 DUP3 ADD MSTORE PUSH20 0x64732D6D6174682D6164642D6F766572666C6F77 PUSH1 0x60 SHL PUSH1 0x44 DUP3 ADD MSTORE PUSH1 0x64 ADD PUSH2 0x20B JUMP JUMPDEST CALLER PUSH1 0x0 SWAP1 DUP2 MSTORE PUSH1 0x20 DUP2 SWAP1 MSTORE PUSH1 0x40 SWAP1 KECCAK256 PUSH1 0x1 ADD SLOAD PUSH2 0x974 JUMPI PUSH1 0x40 MLOAD PUSH3 0x461BCD PUSH1 0xE5 SHL DUP2 MSTORE PUSH1 0x20 PUSH1 0x4 DUP3 ADD MSTORE PUSH1 0x17 PUSH1 0x24 DUP3 ADD MSTORE PUSH32 0x546869732061646472657373206E6F742065786973742E000000000000000000 PUSH1 0x44 DUP3 ADD MSTORE PUSH1 0x64 ADD PUSH2 0x20B JUMP JUMPDEST PUSH1 0x1 PUSH1 0x1 PUSH1 0xA0 SHL SUB AND PUSH1 0x0 SWAP1 DUP2 MSTORE PUSH1 0x20 DUP2 SWAP1 MSTORE PUSH1 0x40 DUP2 KECCAK256 DUP1 SLOAD PUSH1 0x1 PUSH1 0x1 PUSH1 0xA0 SHL SUB NOT AND DUP2 SSTORE PUSH1 0x1 DUP2 ADD DUP3 SWAP1 SSTORE PUSH1 0x2 DUP2 ADD DUP3 SWAP1 SSTORE PUSH1 0x3 DUP2 ADD DUP3 SWAP1 SSTORE PUSH1 0x4 ADD SSTORE JUMP JUMPDEST CALLER PUSH1 0x0 SWAP1 DUP2 MSTORE PUSH1 0x20 DUP2 SWAP1 MSTORE PUSH1 0x40 SWAP1 KECCAK256 PUSH1 0x1 ADD SLOAD ISZERO PUSH2 0x9E4 JUMPI PUSH1 0x40 MLOAD PUSH3 0x461BCD PUSH1 0xE5 SHL DUP2 MSTORE PUSH1 0x4 ADD PUSH2 0x20B SWAP1 PUSH2 0xB4D JUMP JUMPDEST PUSH1 0x0 PUSH2 0x9F0 DUP4 DUP4 PUSH2 0xA63 JUMP JUMPDEST PUSH1 0x40 DUP1 MLOAD PUSH1 0xA0 DUP2 ADD DUP3 MSTORE PUSH1 0x1 PUSH1 0x1 PUSH1 0xA0 SHL SUB SWAP7 DUP8 AND DUP1 DUP3 MSTORE TIMESTAMP PUSH1 0x20 DUP1 DUP5 ADD SWAP2 DUP3 MSTORE DUP4 DUP6 ADD SWAP9 DUP10 MSTORE PUSH1 0x60 DUP5 ADD SWAP8 DUP9 MSTORE PUSH1 0x80 DUP5 ADD SWAP6 DUP7 MSTORE PUSH1 0x0 SWAP3 DUP4 MSTORE DUP3 SWAP1 MSTORE SWAP3 SWAP1 KECCAK256 SWAP1 MLOAD DUP2 SLOAD PUSH1 0x1 PUSH1 0x1 PUSH1 0xA0 SHL SUB NOT AND SWAP8 AND SWAP7 SWAP1 SWAP7 OR DUP7 SSTORE MLOAD PUSH1 0x1 DUP7 ADD SSTORE SWAP3 MLOAD PUSH1 0x2 DUP6 ADD SSTORE POP MLOAD PUSH1 0x3 DUP4 ADD SSTORE MLOAD PUSH1 0x4 SWAP1 SWAP2 ADD SSTORE JUMP JUMPDEST PUSH1 0x0 PUSH2 0xA76 PUSH2 0x2710 PUSH2 0x383 DUP5 PUSH1 0x78 PUSH2 0x7A4 JUMP JUMPDEST SWAP1 POP DUP3 PUSH1 0x7 EQ ISZERO PUSH2 0xA86 JUMPI PUSH2 0x80B JUMP JUMPDEST DUP3 PUSH1 0x1E EQ ISZERO PUSH2 0xABC JUMPI PUSH2 0xAB5 PUSH2 0xAA4 PUSH2 0x2710 PUSH2 0x383 DUP6 PUSH2 0x1F4 PUSH2 0x7A4 JUMP JUMPDEST PUSH2 0xAAF DUP4 PUSH1 0x4 PUSH2 0x7A4 JUMP JUMPDEST SWAP1 PUSH2 0x8C0 JUMP JUMPDEST SWAP1 POP PUSH2 0x80B JUMP JUMPDEST DUP3 PUSH1 0x5A EQ ISZERO PUSH2 0x80B JUMPI PUSH2 0x863 PUSH2 0xADA PUSH2 0x2710 PUSH2 0x383 DUP6 PUSH2 0x7D0 PUSH2 0x7A4 JUMP JUMPDEST PUSH2 0xAAF DUP4 PUSH1 0xD PUSH2 0x7A4 JUMP JUMPDEST PUSH1 0x0 PUSH1 0x20 DUP3 DUP5 SUB SLT ISZERO PUSH2 0xAF6 JUMPI DUP1 DUP2 REVERT JUMPDEST DUP2 CALLDATALOAD PUSH1 0x1 PUSH1 0x1 PUSH1 0xA0 SHL SUB DUP2 AND DUP2 EQ PUSH2 0x863 JUMPI DUP2 DUP3 REVERT JUMPDEST PUSH1 0x0 PUSH1 0x20 DUP3 DUP5 SUB SLT ISZERO PUSH2 0xB1D JUMPI DUP1 DUP2 REVERT JUMPDEST DUP2 MLOAD DUP1 ISZERO ISZERO DUP2 EQ PUSH2 0x863 JUMPI DUP2 DUP3 REVERT JUMPDEST PUSH1 0x0 DUP1 PUSH1 0x40 DUP4 DUP6 SUB SLT ISZERO PUSH2 0xB3E JUMPI DUP1 DUP2 REVERT JUMPDEST POP POP DUP1 CALLDATALOAD SWAP3 PUSH1 0x20 SWAP1 SWAP2 ADD CALLDATALOAD SWAP2 POP JUMP JUMPDEST PUSH1 0x20 DUP1 DUP3 MSTORE PUSH1 0x2C SWAP1 DUP3 ADD MSTORE PUSH32 0x54686973207374616B696E6720666F722074686973206164647265737320616C PUSH1 0x40 DUP3 ADD MSTORE PUSH12 0x3932B0B23C9032BC34B9BA17 PUSH1 0xA1 SHL PUSH1 0x60 DUP3 ADD MSTORE PUSH1 0x80 ADD SWAP1 JUMP JUMPDEST PUSH1 0x20 DUP1 DUP3 MSTORE PUSH1 0x15 SWAP1 DUP3 ADD MSTORE PUSH21 0x151A1A5CC81CDD185AD95C881B9BDD08195E1A5CDD PUSH1 0x5A SHL PUSH1 0x40 DUP3 ADD MSTORE PUSH1 0x60 ADD SWAP1 JUMP JUMPDEST PUSH1 0x0 DUP3 NOT DUP3 GT ISZERO PUSH2 0xBDB JUMPI PUSH2 0xBDB PUSH2 0xC36 JUMP JUMPDEST POP ADD SWAP1 JUMP JUMPDEST PUSH1 0x0 DUP3 PUSH2 0xBFB JUMPI PUSH4 0x4E487B71 PUSH1 0xE0 SHL DUP2 MSTORE PUSH1 0x12 PUSH1 0x4 MSTORE PUSH1 0x24 DUP2 REVERT JUMPDEST POP DIV SWAP1 JUMP JUMPDEST PUSH1 0x0 DUP2 PUSH1 0x0 NOT DIV DUP4 GT DUP3 ISZERO ISZERO AND ISZERO PUSH2 0xC1A JUMPI PUSH2 0xC1A PUSH2 0xC36 JUMP JUMPDEST POP MUL SWAP1 JUMP JUMPDEST PUSH1 0x0 DUP3 DUP3 LT ISZERO PUSH2 0xC31 JUMPI PUSH2 0xC31 PUSH2 0xC36 JUMP JUMPDEST POP SUB SWAP1 JUMP JUMPDEST PUSH4 0x4E487B71 PUSH1 0xE0 SHL PUSH1 0x0 MSTORE PUSH1 0x11 PUSH1 0x4 MSTORE PUSH1 0x24 PUSH1 0x0 REVERT INVALID LOG2 PUSH5 0x6970667358 0x22 SLT KECCAK256 0xEF ADDMOD 0xDC PUSH13 0xF28CBDC4CDC14508E5DFF0717 0x27 BALANCE 0xEB 0x4D 0x5D 0xE1 ADDMOD NOT RETURNDATACOPY SELFDESTRUCT 0x2A SWAP13 PUSH7 0x1AF64736F6C63 NUMBER STOP ADDMOD DIV STOP CALLER "
        },
        "gasEstimates": {
          "creation": {
            "codeDepositCost": "640400",
            "executionCost": "infinite",
            "totalCost": "infinite"
          },
          "external": {
            "marketingWalletAddress()": "1114",
            "nowUnixTime()": "257",
            "periodOf(address)": "2208",
            "rewardOf(address)": "2164",
            "stake(uint256,uint256)": "infinite",
            "stakeOf(address)": "2119",
            "stakeTokenAddress()": "1027",
            "stakers(address)": "4617",
            "stakingDateOf(address)": "2142",
            "unstake()": "infinite"
          },
          "internal": {
            "calcRewards(uint256,uint256)": "infinite",
            "creatStaker(address,uint256,uint256)": "infinite",
            "removeStaker(address)": "infinite"
          }
        },
        "methodIdentifiers": {
          "marketingWalletAddress()": "d158272d",
          "nowUnixTime()": "c25eede5",
          "periodOf(address)": "2fc83b2e",
          "rewardOf(address)": "1d62ebd9",
          "stake(uint256,uint256)": "7b0472f0",
          "stakeOf(address)": "42623360",
          "stakeTokenAddress()": "0106395f",
          "stakers(address)": "9168ae72",
          "stakingDateOf(address)": "109496ff",
          "unstake()": "2def6620"
        }
      },
      "storageLayout": {
        "storage": [
          {
            "astId": 207,
            "contract": "contracts/staking.sol:Staking",
            "label": "stakers",
            "offset": 0,
            "slot": "0",
            "type": "t_mapping(t_address,t_struct(Staker)201_storage)"
          },
          {
            "astId": 210,
            "contract": "contracts/staking.sol:Staking",
            "label": "marketingWalletAddress",
            "offset": 0,
            "slot": "1",
            "type": "t_address"
          },
          {
            "astId": 212,
            "contract": "contracts/staking.sol:Staking",
            "label": "stakeTokenAddress",
            "offset": 0,
            "slot": "2",
            "type": "t_address"
          }
        ],
        "types": {
          "t_address": {
            "encoding": "inplace",
            "label": "address",
            "numberOfBytes": "20"
          },
          "t_mapping(t_address,t_struct(Staker)201_storage)": {
            "encoding": "mapping",
            "key": "t_address",
            "label": "mapping(address => struct Staking.Staker)",
            "numberOfBytes": "32",
            "value": "t_struct(Staker)201_storage"
          },
          "t_struct(Staker)201_storage": {
            "encoding": "inplace",
            "label": "struct Staking.Staker",
            "members": [
              {
                "astId": 192,
                "contract": "contracts/staking.sol:Staking",
                "label": "stakeAddress",
                "offset": 0,
                "slot": "0",
                "type": "t_address"
              },
              {
                "astId": 194,
                "contract": "contracts/staking.sol:Staking",
                "label": "stakingDate",
                "offset": 0,
                "slot": "1",
                "type": "t_uint256"
              },
              {
                "astId": 196,
                "contract": "contracts/staking.sol:Staking",
                "label": "period",
                "offset": 0,
                "slot": "2",
                "type": "t_uint256"
              },
              {
                "astId": 198,
                "contract": "contracts/staking.sol:Staking",
                "label": "stakes",
                "offset": 0,
                "slot": "3",
                "type": "t_uint256"
              },
              {
                "astId": 200,
                "contract": "contracts/staking.sol:Staking",
                "label": "rewards",
                "offset": 0,
                "slot": "4",
                "type": "t_uint256"
              }
            ],
            "numberOfBytes": "160"
          },
          "t_uint256": {
            "encoding": "inplace",
            "label": "uint256",
            "numberOfBytes": "32"
          }
        }
      },
      "userdoc": {
        "kind": "user",
        "methods": {
          "marketingWalletAddress()": {
            "notice": "The array of stakers."
          },
          "stake(uint256,uint256)": {
            "notice": "A method for staking."
          },
          "stakers(address)": {
            "notice": "The mapping for the info of staker who have staked according his address."
          }
        },
        "version": 1
      }
    }
  }
}