{
  "_format": "hh-sol-artifact-1",
  "contractName": "Staking",
  "sourceName": "contracts/Staking.sol",
  "abi": [
    {
      "inputs": [
        {
          "internalType": "address",
          "name": "_stakeTokenAddress",
          "type": "address"
        },
        {
          "internalType": "address",
          "name": "_rewardTokenAddress",
          "type": "address"
        },
        {
          "internalType": "uint256",
          "name": "_quota",
          "type": "uint256"
        }
      ],
      "stateMutability": "nonpayable",
      "type": "constructor"
    },
    {
      "anonymous": false,
      "inputs": [
        {
          "indexed": true,
          "internalType": "address",
          "name": "previousOwner",
          "type": "address"
        },
        {
          "indexed": true,
          "internalType": "address",
          "name": "newOwner",
          "type": "address"
        }
      ],
      "name": "OwnershipTransferred",
      "type": "event"
    },
    {
      "anonymous": false,
      "inputs": [
        {
          "indexed": false,
          "internalType": "address",
          "name": "staker",
          "type": "address"
        },
        {
          "indexed": false,
          "internalType": "uint256",
          "name": "amount",
          "type": "uint256"
        }
      ],
      "name": "Reward",
      "type": "event"
    },
    {
      "anonymous": false,
      "inputs": [
        {
          "indexed": false,
          "internalType": "address",
          "name": "staker",
          "type": "address"
        },
        {
          "indexed": false,
          "internalType": "uint256",
          "name": "amount",
          "type": "uint256"
        }
      ],
      "name": "Stake",
      "type": "event"
    },
    {
      "anonymous": false,
      "inputs": [
        {
          "indexed": false,
          "internalType": "address",
          "name": "staker",
          "type": "address"
        },
        {
          "indexed": false,
          "internalType": "uint256",
          "name": "amount",
          "type": "uint256"
        }
      ],
      "name": "Withdraw",
      "type": "event"
    },
    {
      "inputs": [],
      "name": "claimRewards",
      "outputs": [],
      "stateMutability": "nonpayable",
      "type": "function"
    },
    {
      "inputs": [
        {
          "internalType": "address",
          "name": "stakerAddress",
          "type": "address"
        }
      ],
      "name": "countFee",
      "outputs": [
        {
          "internalType": "uint256",
          "name": "_fee",
          "type": "uint256"
        }
      ],
      "stateMutability": "view",
      "type": "function"
    },
    {
      "inputs": [
        {
          "internalType": "address",
          "name": "stakerAddress",
          "type": "address"
        }
      ],
      "name": "countReward",
      "outputs": [
        {
          "internalType": "uint256",
          "name": "_reward",
          "type": "uint256"
        }
      ],
      "stateMutability": "view",
      "type": "function"
    },
    {
      "inputs": [
        {
          "internalType": "address",
          "name": "stakerAddress",
          "type": "address"
        }
      ],
      "name": "countStake",
      "outputs": [
        {
          "internalType": "uint256",
          "name": "_stake",
          "type": "uint256"
        }
      ],
      "stateMutability": "view",
      "type": "function"
    },
    {
      "inputs": [],
      "name": "countTotalReward",
      "outputs": [
        {
          "internalType": "uint256",
          "name": "_totalReward",
          "type": "uint256"
        }
      ],
      "stateMutability": "view",
      "type": "function"
    },
    {
      "inputs": [],
      "name": "countTotalStake",
      "outputs": [
        {
          "internalType": "uint256",
          "name": "_totalStake",
          "type": "uint256"
        }
      ],
      "stateMutability": "view",
      "type": "function"
    },
    {
      "inputs": [],
      "name": "feeAddress",
      "outputs": [
        {
          "internalType": "address",
          "name": "",
          "type": "address"
        }
      ],
      "stateMutability": "view",
      "type": "function"
    },
    {
      "inputs": [
        {
          "internalType": "uint256",
          "name": "",
          "type": "uint256"
        }
      ],
      "name": "feeRates",
      "outputs": [
        {
          "internalType": "uint256",
          "name": "",
          "type": "uint256"
        }
      ],
      "stateMutability": "view",
      "type": "function"
    },
    {
      "inputs": [
        {
          "internalType": "uint256",
          "name": "",
          "type": "uint256"
        }
      ],
      "name": "feeSteps",
      "outputs": [
        {
          "internalType": "uint256",
          "name": "",
          "type": "uint256"
        }
      ],
      "stateMutability": "view",
      "type": "function"
    },
    {
      "inputs": [
        {
          "internalType": "address",
          "name": "stakerAddress",
          "type": "address"
        }
      ],
      "name": "getStakeInfo",
      "outputs": [
        {
          "internalType": "uint256",
          "name": "_total",
          "type": "uint256"
        },
        {
          "internalType": "uint256",
          "name": "_staking",
          "type": "uint256"
        },
        {
          "internalType": "uint256",
          "name": "_rewardable",
          "type": "uint256"
        },
        {
          "internalType": "uint256",
          "name": "_rewards",
          "type": "uint256"
        }
      ],
      "stateMutability": "view",
      "type": "function"
    },
    {
      "inputs": [],
      "name": "lastUpdateTime",
      "outputs": [
        {
          "internalType": "uint256",
          "name": "",
          "type": "uint256"
        }
      ],
      "stateMutability": "view",
      "type": "function"
    },
    {
      "inputs": [],
      "name": "owner",
      "outputs": [
        {
          "internalType": "address",
          "name": "",
          "type": "address"
        }
      ],
      "stateMutability": "view",
      "type": "function"
    },
    {
      "inputs": [],
      "name": "quota",
      "outputs": [
        {
          "internalType": "uint256",
          "name": "",
          "type": "uint256"
        }
      ],
      "stateMutability": "view",
      "type": "function"
    },
    {
      "inputs": [],
      "name": "renounceOwnership",
      "outputs": [],
      "stateMutability": "nonpayable",
      "type": "function"
    },
    {
      "inputs": [],
      "name": "rewardRate",
      "outputs": [
        {
          "internalType": "uint256",
          "name": "",
          "type": "uint256"
        }
      ],
      "stateMutability": "view",
      "type": "function"
    },
    {
      "inputs": [],
      "name": "rewardTokenAddress",
      "outputs": [
        {
          "internalType": "address",
          "name": "",
          "type": "address"
        }
      ],
      "stateMutability": "view",
      "type": "function"
    },
    {
      "inputs": [
        {
          "internalType": "address",
          "name": "_feeAddress",
          "type": "address"
        }
      ],
      "name": "setFeeAddress",
      "outputs": [],
      "stateMutability": "nonpayable",
      "type": "function"
    },
    {
      "inputs": [
        {
          "internalType": "uint256",
          "name": "amount",
          "type": "uint256"
        },
        {
          "internalType": "address",
          "name": "referalAddress",
          "type": "address"
        }
      ],
      "name": "stake",
      "outputs": [],
      "stateMutability": "nonpayable",
      "type": "function"
    },
    {
      "inputs": [],
      "name": "stakeTokenAddress",
      "outputs": [
        {
          "internalType": "address",
          "name": "",
          "type": "address"
        }
      ],
      "stateMutability": "view",
      "type": "function"
    },
    {
      "inputs": [
        {
          "internalType": "address",
          "name": "",
          "type": "address"
        }
      ],
      "name": "stakers",
      "outputs": [
        {
          "internalType": "address",
          "name": "referal",
          "type": "address"
        },
        {
          "internalType": "uint256",
          "name": "stakingAmount",
          "type": "uint256"
        },
        {
          "internalType": "uint256",
          "name": "lastUpdateTime",
          "type": "uint256"
        },
        {
          "internalType": "uint256",
          "name": "lastStakeUpdateTime",
          "type": "uint256"
        },
        {
          "internalType": "uint256",
          "name": "stake",
          "type": "uint256"
        },
        {
          "internalType": "uint256",
          "name": "rewards",
          "type": "uint256"
        }
      ],
      "stateMutability": "view",
      "type": "function"
    },
    {
      "inputs": [],
      "name": "startBlockNumber",
      "outputs": [
        {
          "internalType": "uint256",
          "name": "",
          "type": "uint256"
        }
      ],
      "stateMutability": "view",
      "type": "function"
    },
    {
      "inputs": [],
      "name": "totalReward",
      "outputs": [
        {
          "internalType": "uint256",
          "name": "",
          "type": "uint256"
        }
      ],
      "stateMutability": "view",
      "type": "function"
    },
    {
      "inputs": [],
      "name": "totalStake",
      "outputs": [
        {
          "internalType": "uint256",
          "name": "",
          "type": "uint256"
        }
      ],
      "stateMutability": "view",
      "type": "function"
    },
    {
      "inputs": [],
      "name": "totalStakingAmount",
      "outputs": [
        {
          "internalType": "uint256",
          "name": "",
          "type": "uint256"
        }
      ],
      "stateMutability": "view",
      "type": "function"
    },
    {
      "inputs": [
        {
          "internalType": "address",
          "name": "newOwner",
          "type": "address"
        }
      ],
      "name": "transferOwnership",
      "outputs": [],
      "stateMutability": "nonpayable",
      "type": "function"
    },
    {
      "inputs": [],
      "name": "unstaking",
      "outputs": [],
      "stateMutability": "nonpayable",
      "type": "function"
    }
  ],
  "bytecode": "0x6080604052604051806060016040528062093a8062ffffff16815260200162278d0062ffffff1681526020016276a70062ffffff168152506002906003620000499291906200023a565b506040518060a00160405280601e60ff168152602001601960ff168152602001601460ff168152602001600f60ff168152602001600a60ff1681525060059060056200009792919062000286565b50348015620000a557600080fd5b5060405162002839380380620028398339818101604052810190620000cb91906200031d565b42600c81905550816000806101000a81548173ffffffffffffffffffffffffffffffffffffffff021916908373ffffffffffffffffffffffffffffffffffffffff16021790555082600160006101000a81548173ffffffffffffffffffffffffffffffffffffffff021916908373ffffffffffffffffffffffffffffffffffffffff16021790555042600d8190555080601181905550620001716200017a60201b60201c565b505050620003e5565b33601360006101000a81548173ffffffffffffffffffffffffffffffffffffffff021916908373ffffffffffffffffffffffffffffffffffffffff160217905550601360009054906101000a900473ffffffffffffffffffffffffffffffffffffffff1673ffffffffffffffffffffffffffffffffffffffff16600073ffffffffffffffffffffffffffffffffffffffff167f8be0079c531659141344cd1fd0a4f28419497f9722a3daafe3b4186f6b6457e060405160405180910390a3565b826003810192821562000273579160200282015b8281111562000272578251829062ffffff169055916020019190600101906200024e565b5b509050620002829190620002d0565b5090565b8260058101928215620002bd579160200282015b82811115620002bc578251829060ff169055916020019190600101906200029a565b5b509050620002cc9190620002d0565b5090565b5b80821115620002eb576000816000905550600101620002d1565b5090565b6000815190506200030081620003b1565b92915050565b6000815190506200031781620003cb565b92915050565b6000806000606084860312156200033357600080fd5b60006200034386828701620002ef565b93505060206200035686828701620002ef565b9250506040620003698682870162000306565b9150509250925092565b6000620003808262000387565b9050919050565b600073ffffffffffffffffffffffffffffffffffffffff82169050919050565b6000819050919050565b620003bc8162000373565b8114620003c857600080fd5b50565b620003d681620003a7565b8114620003e257600080fd5b50565b61244480620003f56000396000f3fe608060405234801561001057600080fd5b506004361061018e5760003560e01c80638705fcd4116100de578063b87089d911610097578063cebe09c911610071578063cebe09c91461046d578063d201114a1461048b578063e7caa8c4146104a9578063f2fde38b146104c75761018e565b8063b87089d9146103ec578063c34531531461041c578063c8f33c911461044f5761018e565b80638705fcd4146102ff5780638b0e9f3f1461031b5780638da5cb5b146103395780639168ae7214610357578063ab331f4c1461038c578063b083692d146103bc5761018e565b8063498a4c2d1161014b578063715018a611610125578063715018a61461029d578063750142e6146102a75780637acb7757146102c55780637b0a47ee146102e15761018e565b8063498a4c2d1461024557806356714be314610263578063630b1146146102935761018e565b80630106395f14610193578063125f9e33146101b15780631667e334146101cf5780632461da55146101ff578063372500ab1461021d5780634127535814610227575b600080fd5b61019b6104e3565b6040516101a89190611e76565b60405180910390f35b6101b9610509565b6040516101c69190611e76565b60405180910390f35b6101e960048036038101906101e49190611cf8565b61052d565b6040516101f69190612012565b60405180910390f35b610207610548565b6040516102149190612012565b60405180910390f35b610225610585565b005b61022f610b0d565b60405161023c9190611e76565b60405180910390f35b61024d610b33565b60405161025a9190612012565b60405180910390f35b61027d60048036038101906102789190611ca6565b610b39565b60405161028a9190612012565b60405180910390f35b61029b610b9e565b005b6102a5610f81565b005b6102af6110d2565b6040516102bc9190612012565b60405180910390f35b6102df60048036038101906102da9190611d4a565b6110d8565b005b6102e96113c1565b6040516102f69190612012565b60405180910390f35b61031960048036038101906103149190611ca6565b6113c7565b005b61032361149b565b6040516103309190612012565b60405180910390f35b6103416114a1565b60405161034e9190611e76565b60405180910390f35b610371600480360381019061036c9190611ca6565b6114cb565b60405161038396959493929190611ef1565b60405180910390f35b6103a660048036038101906103a19190611cf8565b611527565b6040516103b39190612012565b60405180910390f35b6103d660048036038101906103d19190611ca6565b611542565b6040516103e39190612012565b60405180910390f35b61040660048036038101906104019190611ca6565b611646565b6040516104139190612012565b60405180910390f35b61043660048036038101906104319190611ca6565b611787565b604051610446949392919061202d565b60405180910390f35b61045761182e565b6040516104649190612012565b60405180910390f35b610475611834565b6040516104829190612012565b60405180910390f35b61049361183a565b6040516104a09190612012565b60405180910390f35b6104b1611840565b6040516104be9190612012565b60405180910390f35b6104e160048036038101906104dc9190611ca6565b611892565b005b600160009054906101000a900473ffffffffffffffffffffffffffffffffffffffff1681565b60008054906101000a900473ffffffffffffffffffffffffffffffffffffffff1681565b6002816003811061053d57600080fd5b016000915090505481565b6000610573610562600d544261192e90919063ffffffff16565b600b5461198790919063ffffffff16565b600f546105809190612083565b905090565b6000339050600061059582611646565b905060006105a283610b39565b9050600081116105e7576040517f08c379a00000000000000000000000000000000000000000000000000000000081526004016105de90611ff2565b60405180910390fd5b60008060009054906101000a900473ffffffffffffffffffffffffffffffffffffffff16905060008073ffffffffffffffffffffffffffffffffffffffff16601260008773ffffffffffffffffffffffffffffffffffffffff1673ffffffffffffffffffffffffffffffffffffffff16815260200190815260200160002060000160009054906101000a900473ffffffffffffffffffffffffffffffffffffffff1673ffffffffffffffffffffffffffffffffffffffff16141590508173ffffffffffffffffffffffffffffffffffffffff1663a0712d68826106cb5760006106d9565b600a856106d891906120d9565b5b856106e49190612083565b6040518263ffffffff1660e01b81526004016107009190612012565b602060405180830381600087803b15801561071a57600080fd5b505af115801561072e573d6000803e3d6000fd5b505050506040513d601f19601f820116820180604052508101906107529190611ccf565b508173ffffffffffffffffffffffffffffffffffffffff1663a9059cbb86856040518363ffffffff1660e01b815260040161078e929190611ec8565b602060405180830381600087803b1580156107a857600080fd5b505af11580156107bc573d6000803e3d6000fd5b505050506040513d601f19601f820116820180604052508101906107e09190611ccf565b5080156109ab578173ffffffffffffffffffffffffffffffffffffffff1663a9059cbb601260008873ffffffffffffffffffffffffffffffffffffffff1673ffffffffffffffffffffffffffffffffffffffff16815260200190815260200160002060000160009054906101000a900473ffffffffffffffffffffffffffffffffffffffff16600a8661087391906120d9565b6040518363ffffffff1660e01b8152600401610890929190611ec8565b602060405180830381600087803b1580156108aa57600080fd5b505af11580156108be573d6000803e3d6000fd5b505050506040513d601f19601f820116820180604052508101906108e29190611ccf565b50600a836108f091906120d9565b60126000601260008973ffffffffffffffffffffffffffffffffffffffff1673ffffffffffffffffffffffffffffffffffffffff16815260200190815260200160002060000160009054906101000a900473ffffffffffffffffffffffffffffffffffffffff1673ffffffffffffffffffffffffffffffffffffffff1673ffffffffffffffffffffffffffffffffffffffff16815260200190815260200160002060050160008282546109a39190612083565b925050819055505b82601260008773ffffffffffffffffffffffffffffffffffffffff1673ffffffffffffffffffffffffffffffffffffffff16815260200190815260200160002060050160008282546109fd9190612083565b9250508190555083600f6000828254610a169190612164565b9250508190555082600e6000828254610a2f9190612164565b925050819055506000601260008773ffffffffffffffffffffffffffffffffffffffff1673ffffffffffffffffffffffffffffffffffffffff1681526020019081526020016000206004018190555042601260008773ffffffffffffffffffffffffffffffffffffffff1673ffffffffffffffffffffffffffffffffffffffff16815260200190815260200160002060020181905550610acd6119f4565b7f619caafabdd75649b302ba8419e48cccf64f37f1983ac4727cfb38b57703ffc98584604051610afe929190611ec8565b60405180910390a15050505050565b600a60009054906101000a900473ffffffffffffffffffffffffffffffffffffffff1681565b600c5481565b600080610b44610548565b90506000610b50611840565b90506000610b5d85611646565b905060008314610b9157610b8c83610b7e838561198790919063ffffffff16565b611aca90919063ffffffff16565b610b94565b60005b9350505050919050565b60003390506000601260008373ffffffffffffffffffffffffffffffffffffffff1673ffffffffffffffffffffffffffffffffffffffff1681526020019081526020016000206001015490508060001115610c2e576040517f08c379a0000000000000000000000000000000000000000000000000000000008152600401610c2590611fd2565b60405180910390fd5b6000610c3983611542565b9050600160009054906101000a900473ffffffffffffffffffffffffffffffffffffffff1673ffffffffffffffffffffffffffffffffffffffff1663a9059cbb600a60009054906101000a900473ffffffffffffffffffffffffffffffffffffffff16610cc36103e8610cb5868861198790919063ffffffff16565b611aca90919063ffffffff16565b6040518363ffffffff1660e01b8152600401610ce0929190611ec8565b602060405180830381600087803b158015610cfa57600080fd5b505af1158015610d0e573d6000803e3d6000fd5b505050506040513d601f19601f82011682018060405250810190610d329190611ccf565b50600160009054906101000a900473ffffffffffffffffffffffffffffffffffffffff1673ffffffffffffffffffffffffffffffffffffffff1663a9059cbb84610da66103e8610d98866103e8610d899190612164565b8861198790919063ffffffff16565b611aca90919063ffffffff16565b6040518363ffffffff1660e01b8152600401610dc3929190611ec8565b602060405180830381600087803b158015610ddd57600080fd5b505af1158015610df1573d6000803e3d6000fd5b505050506040513d601f19601f82011682018060405250810190610e159190611ccf565b50610e1f83611646565b601260008573ffffffffffffffffffffffffffffffffffffffff1673ffffffffffffffffffffffffffffffffffffffff168152602001908152602001600020600401819055506000601260008573ffffffffffffffffffffffffffffffffffffffff1673ffffffffffffffffffffffffffffffffffffffff1681526020019081526020016000206001018190555042601260008573ffffffffffffffffffffffffffffffffffffffff1673ffffffffffffffffffffffffffffffffffffffff1681526020019081526020016000206002018190555042601260008573ffffffffffffffffffffffffffffffffffffffff1673ffffffffffffffffffffffffffffffffffffffff16815260200190815260200160002060030181905550610f436119f4565b7f884edad9ce6fa2440d8a54cc123490eb96d2768479d49ff9c7366125a94243648383604051610f74929190611ec8565b60405180910390a1505050565b3373ffffffffffffffffffffffffffffffffffffffff16601360009054906101000a900473ffffffffffffffffffffffffffffffffffffffff1673ffffffffffffffffffffffffffffffffffffffff1614611011576040517f08c379a000000000000000000000000000000000000000000000000000000000815260040161100890611fb2565b60405180910390fd5b600073ffffffffffffffffffffffffffffffffffffffff16601360009054906101000a900473ffffffffffffffffffffffffffffffffffffffff1673ffffffffffffffffffffffffffffffffffffffff167f8be0079c531659141344cd1fd0a4f28419497f9722a3daafe3b4186f6b6457e060405160405180910390a36000601360006101000a81548173ffffffffffffffffffffffffffffffffffffffff021916908373ffffffffffffffffffffffffffffffffffffffff160217905550565b600e5481565b6000339050600160009054906101000a900473ffffffffffffffffffffffffffffffffffffffff1673ffffffffffffffffffffffffffffffffffffffff166323b872dd8230866040518463ffffffff1660e01b815260040161113c93929190611e91565b602060405180830381600087803b15801561115657600080fd5b505af115801561116a573d6000803e3d6000fd5b505050506040513d601f19601f8201168201806040525081019061118e9190611ccf565b50600073ffffffffffffffffffffffffffffffffffffffff168273ffffffffffffffffffffffffffffffffffffffff16146112455781601260008373ffffffffffffffffffffffffffffffffffffffff1673ffffffffffffffffffffffffffffffffffffffff16815260200190815260200160002060000160006101000a81548173ffffffffffffffffffffffffffffffffffffffff021916908373ffffffffffffffffffffffffffffffffffffffff1602179055505b61124e81611646565b601260008373ffffffffffffffffffffffffffffffffffffffff1673ffffffffffffffffffffffffffffffffffffffff1681526020019081526020016000206004018190555082601260008373ffffffffffffffffffffffffffffffffffffffff1673ffffffffffffffffffffffffffffffffffffffff16815260200190815260200160002060010160008282546112e69190612083565b9250508190555042601260008373ffffffffffffffffffffffffffffffffffffffff1673ffffffffffffffffffffffffffffffffffffffff1681526020019081526020016000206002018190555042601260008373ffffffffffffffffffffffffffffffffffffffff1673ffffffffffffffffffffffffffffffffffffffff168152602001908152602001600020600301819055506113836119f4565b7febedb8b3c678666e7f36970bc8f57abf6d8fa2e828c0da91ea5b75bf68ed101a81846040516113b4929190611ec8565b60405180910390a1505050565b60105481565b3373ffffffffffffffffffffffffffffffffffffffff16601360009054906101000a900473ffffffffffffffffffffffffffffffffffffffff1673ffffffffffffffffffffffffffffffffffffffff1614611457576040517f08c379a000000000000000000000000000000000000000000000000000000000815260040161144e90611fb2565b60405180910390fd5b80600a60006101000a81548173ffffffffffffffffffffffffffffffffffffffff021916908373ffffffffffffffffffffffffffffffffffffffff16021790555050565b600f5481565b6000601360009054906101000a900473ffffffffffffffffffffffffffffffffffffffff16905090565b60126020528060005260406000206000915090508060000160009054906101000a900473ffffffffffffffffffffffffffffffffffffffff16908060010154908060020154908060030154908060040154908060050154905086565b6005816005811061153757600080fd5b016000915090505481565b600080600090505b6005811015611602576002816003811061158d577f4e487b7100000000000000000000000000000000000000000000000000000000600052603260045260246000fd5b01546115e4601260008673ffffffffffffffffffffffffffffffffffffffff1673ffffffffffffffffffffffffffffffffffffffff168152602001908152602001600020600301544261192e90919063ffffffff16565b10156115ef57611602565b80806115fa906121e0565b91505061154a565b6005816005811061163c577f4e487b7100000000000000000000000000000000000000000000000000000000600052603260045260246000fd5b0154915050919050565b600080601260008473ffffffffffffffffffffffffffffffffffffffff1673ffffffffffffffffffffffffffffffffffffffff1681526020019081526020016000206040518060c00160405290816000820160009054906101000a900473ffffffffffffffffffffffffffffffffffffffff1673ffffffffffffffffffffffffffffffffffffffff1673ffffffffffffffffffffffffffffffffffffffff1681526020016001820154815260200160028201548152602001600382015481526020016004820154815260200160058201548152505090506000600b54148015611733575060008160800151145b15611742576000915050611782565b61176f816020015161176183604001514261192e90919063ffffffff16565b61198790919063ffffffff16565b816080015161177e9190612083565b9150505b919050565b600080600080600b549350601260008673ffffffffffffffffffffffffffffffffffffffff1673ffffffffffffffffffffffffffffffffffffffff1681526020019081526020016000206001015492506117e085610b39565b9150601260008673ffffffffffffffffffffffffffffffffffffffff1673ffffffffffffffffffffffffffffffffffffffff1681526020019081526020016000206005015490509193509193565b600d5481565b60115481565b600b5481565b600061188062015180611872611861600d544261192e90919063ffffffff16565b60115461198790919063ffffffff16565b611aca90919063ffffffff16565b600e5461188d9190612083565b905090565b3373ffffffffffffffffffffffffffffffffffffffff16601360009054906101000a900473ffffffffffffffffffffffffffffffffffffffff1673ffffffffffffffffffffffffffffffffffffffff1614611922576040517f08c379a000000000000000000000000000000000000000000000000000000000815260040161191990611fb2565b60405180910390fd5b61192b81611b22565b50565b600082828461193d9190612164565b9150811115611981576040517f08c379a000000000000000000000000000000000000000000000000000000000815260040161197890611f52565b60405180910390fd5b92915050565b6000808214806119af5750828283856119a0919061210a565b9250826119ad91906120d9565b145b6119ee576040517f08c379a00000000000000000000000000000000000000000000000000000000081526004016119e590611f92565b60405180910390fd5b92915050565b6119fc610548565b600f81905550611a0a611840565b600e8190555042600d81905550600160009054906101000a900473ffffffffffffffffffffffffffffffffffffffff1673ffffffffffffffffffffffffffffffffffffffff166370a08231306040518263ffffffff1660e01b8152600401611a729190611e76565b60206040518083038186803b158015611a8a57600080fd5b505afa158015611a9e573d6000803e3d6000fd5b505050506040513d601f19601f82011682018060405250810190611ac29190611d21565b600b81905550565b6000808211611b0e576040517f08c379a0000000000000000000000000000000000000000000000000000000008152600401611b0590611f92565b60405180910390fd5b8183611b1a91906120d9565b905092915050565b600073ffffffffffffffffffffffffffffffffffffffff168173ffffffffffffffffffffffffffffffffffffffff161415611b92576040517f08c379a0000000000000000000000000000000000000000000000000000000008152600401611b8990611f72565b60405180910390fd5b8073ffffffffffffffffffffffffffffffffffffffff16601360009054906101000a900473ffffffffffffffffffffffffffffffffffffffff1673ffffffffffffffffffffffffffffffffffffffff167f8be0079c531659141344cd1fd0a4f28419497f9722a3daafe3b4186f6b6457e060405160405180910390a380601360006101000a81548173ffffffffffffffffffffffffffffffffffffffff021916908373ffffffffffffffffffffffffffffffffffffffff16021790555050565b600081359050611c61816123c9565b92915050565b600081519050611c76816123e0565b92915050565b600081359050611c8b816123f7565b92915050565b600081519050611ca0816123f7565b92915050565b600060208284031215611cb857600080fd5b6000611cc684828501611c52565b91505092915050565b600060208284031215611ce157600080fd5b6000611cef84828501611c67565b91505092915050565b600060208284031215611d0a57600080fd5b6000611d1884828501611c7c565b91505092915050565b600060208284031215611d3357600080fd5b6000611d4184828501611c91565b91505092915050565b60008060408385031215611d5d57600080fd5b6000611d6b85828601611c7c565b9250506020611d7c85828601611c52565b9150509250929050565b611d8f81612198565b82525050565b6000611da2601583612072565b9150611dad82612287565b602082019050919050565b6000611dc5602683612072565b9150611dd0826122b0565b604082019050919050565b6000611de8601483612072565b9150611df3826122ff565b602082019050919050565b6000611e0b602083612072565b9150611e1682612328565b602082019050919050565b6000611e2e602183612072565b9150611e3982612351565b604082019050919050565b6000611e51601c83612072565b9150611e5c826123a0565b602082019050919050565b611e70816121d6565b82525050565b6000602082019050611e8b6000830184611d86565b92915050565b6000606082019050611ea66000830186611d86565b611eb36020830185611d86565b611ec06040830184611e67565b949350505050565b6000604082019050611edd6000830185611d86565b611eea6020830184611e67565b9392505050565b600060c082019050611f066000830189611d86565b611f136020830188611e67565b611f206040830187611e67565b611f2d6060830186611e67565b611f3a6080830185611e67565b611f4760a0830184611e67565b979650505050505050565b60006020820190508181036000830152611f6b81611d95565b9050919050565b60006020820190508181036000830152611f8b81611db8565b9050919050565b60006020820190508181036000830152611fab81611ddb565b9050919050565b60006020820190508181036000830152611fcb81611dfe565b9050919050565b60006020820190508181036000830152611feb81611e21565b9050919050565b6000602082019050818103600083015261200b81611e44565b9050919050565b60006020820190506120276000830184611e67565b92915050565b60006080820190506120426000830187611e67565b61204f6020830186611e67565b61205c6040830185611e67565b6120696060830184611e67565b95945050505050565b600082825260208201905092915050565b600061208e826121d6565b9150612099836121d6565b9250827fffffffffffffffffffffffffffffffffffffffffffffffffffffffffffffffff038211156120ce576120cd612229565b5b828201905092915050565b60006120e4826121d6565b91506120ef836121d6565b9250826120ff576120fe612258565b5b828204905092915050565b6000612115826121d6565b9150612120836121d6565b9250817fffffffffffffffffffffffffffffffffffffffffffffffffffffffffffffffff048311821515161561215957612158612229565b5b828202905092915050565b600061216f826121d6565b915061217a836121d6565b92508282101561218d5761218c612229565b5b828203905092915050565b60006121a3826121b6565b9050919050565b60008115159050919050565b600073ffffffffffffffffffffffffffffffffffffffff82169050919050565b6000819050919050565b60006121eb826121d6565b91507fffffffffffffffffffffffffffffffffffffffffffffffffffffffffffffffff82141561221e5761221d612229565b5b600182019050919050565b7f4e487b7100000000000000000000000000000000000000000000000000000000600052601160045260246000fd5b7f4e487b7100000000000000000000000000000000000000000000000000000000600052601260045260246000fd5b7f64732d6d6174682d7375622d756e646572666c6f770000000000000000000000600082015250565b7f4f776e61626c653a206e6577206f776e657220697320746865207a65726f206160008201527f6464726573730000000000000000000000000000000000000000000000000000602082015250565b7f64732d6d6174682d6d756c2d6f766572666c6f77000000000000000000000000600082015250565b7f4f776e61626c653a2063616c6c6572206973206e6f7420746865206f776e6572600082015250565b7f7374616b696e67203a20616d6f756e74206f766572207374616b65416d6f756e60008201527f7400000000000000000000000000000000000000000000000000000000000000602082015250565b7f7374616b696e67203a2072657761726420616d6f756e74206973203000000000600082015250565b6123d281612198565b81146123dd57600080fd5b50565b6123e9816121aa565b81146123f457600080fd5b50565b612400816121d6565b811461240b57600080fd5b5056fea2646970667358221220198ee7d78651b7eefc8a1bc911c205e193ccc773647dc9a8f740dd9bf32b169064736f6c63430008040033",
  "linkReferences": {},
  "deployedLinkReferences": {}
}