{
  "_format": "hh-sol-artifact-1",
  "contractName": "Staking",
  "sourceName": "contracts/staking.sol",
  "abi": [
    {
      "inputs": [
        {
          "internalType": "address",
          "name": "_stakeTokenAddress",
          "type": "address"
        },
        {
          "internalType": "address",
          "name": "_marketingWalletAddress",
          "type": "address"
        }
      ],
      "stateMutability": "nonpayable",
      "type": "constructor"
    },
    {
      "inputs": [],
      "name": "marketingWalletAddress",
      "outputs": [
        {
          "internalType": "address",
          "name": "",
          "type": "address"
        }
      ],
      "stateMutability": "view",
      "type": "function"
    },
    {
      "inputs": [],
      "name": "nowUnixTime",
      "outputs": [
        {
          "internalType": "uint256",
          "name": "",
          "type": "uint256"
        }
      ],
      "stateMutability": "view",
      "type": "function"
    },
    {
      "inputs": [
        {
          "internalType": "address",
          "name": "_sender",
          "type": "address"
        }
      ],
      "name": "periodOf",
      "outputs": [
        {
          "internalType": "uint256",
          "name": "",
          "type": "uint256"
        }
      ],
      "stateMutability": "view",
      "type": "function"
    },
    {
      "inputs": [
        {
          "internalType": "address",
          "name": "_sender",
          "type": "address"
        }
      ],
      "name": "rewardOf",
      "outputs": [
        {
          "internalType": "uint256",
          "name": "",
          "type": "uint256"
        }
      ],
      "stateMutability": "view",
      "type": "function"
    },
    {
      "inputs": [
        {
          "internalType": "uint256",
          "name": "_period",
          "type": "uint256"
        },
        {
          "internalType": "uint256",
          "name": "_stakes",
          "type": "uint256"
        }
      ],
      "name": "stake",
      "outputs": [],
      "stateMutability": "nonpayable",
      "type": "function"
    },
    {
      "inputs": [
        {
          "internalType": "address",
          "name": "_sender",
          "type": "address"
        }
      ],
      "name": "stakeOf",
      "outputs": [
        {
          "internalType": "uint256",
          "name": "",
          "type": "uint256"
        }
      ],
      "stateMutability": "view",
      "type": "function"
    },
    {
      "inputs": [],
      "name": "stakeTokenAddress",
      "outputs": [
        {
          "internalType": "address",
          "name": "",
          "type": "address"
        }
      ],
      "stateMutability": "view",
      "type": "function"
    },
    {
      "inputs": [
        {
          "internalType": "address",
          "name": "",
          "type": "address"
        }
      ],
      "name": "stakers",
      "outputs": [
        {
          "internalType": "address",
          "name": "stakeAddress",
          "type": "address"
        },
        {
          "internalType": "uint256",
          "name": "stakingDate",
          "type": "uint256"
        },
        {
          "internalType": "uint256",
          "name": "period",
          "type": "uint256"
        },
        {
          "internalType": "uint256",
          "name": "stakes",
          "type": "uint256"
        },
        {
          "internalType": "uint256",
          "name": "rewards",
          "type": "uint256"
        }
      ],
      "stateMutability": "view",
      "type": "function"
    },
    {
      "inputs": [
        {
          "internalType": "address",
          "name": "_sender",
          "type": "address"
        }
      ],
      "name": "stakingDateOf",
      "outputs": [
        {
          "internalType": "uint256",
          "name": "",
          "type": "uint256"
        }
      ],
      "stateMutability": "view",
      "type": "function"
    },
    {
      "inputs": [],
      "name": "unstake",
      "outputs": [],
      "stateMutability": "nonpayable",
      "type": "function"
    }
  ],
  "bytecode": "0x608060405234801561001057600080fd5b50604051610d3f380380610d3f83398101604081905261002f9161007c565b600280546001600160a01b039384166001600160a01b031991821617909155600180549290931691161790556100ae565b80516001600160a01b038116811461007757600080fd5b919050565b6000806040838503121561008e578182fd5b61009783610060565b91506100a560208401610060565b90509250929050565b610c82806100bd6000396000f3fe608060405234801561001057600080fd5b506004361061009e5760003560e01c8063426233601161006657806342623360146101245780637b0472f0146101375780639168ae721461014a578063c25eede5146101c3578063d158272d146101c957600080fd5b80630106395f146100a3578063109496ff146100d35780631d62ebd9146100f45780632def6620146101075780632fc83b2e14610111575b600080fd5b6002546100b6906001600160a01b031681565b6040516001600160a01b0390911681526020015b60405180910390f35b6100e66100e1366004610ae5565b6101dc565b6040519081526020016100ca565b6100e6610102366004610ae5565b610233565b61010f610281565b005b6100e661011f366004610ae5565b61063e565b6100e6610132366004610ae5565b61068c565b61010f610145366004610b2c565b6106da565b610191610158366004610ae5565b600060208190529081526040902080546001820154600283015460038401546004909401546001600160a01b0390931693919290919085565b604080516001600160a01b0390961686526020860194909452928401919091526060830152608082015260a0016100ca565b426100e6565b6001546100b6906001600160a01b031681565b336000908152602081905260408120600101546102145760405162461bcd60e51b815260040161020b90610b99565b60405180910390fd5b506001600160a01b031660009081526020819052604090206001015490565b336000908152602081905260408120600101546102625760405162461bcd60e51b815260040161020b90610b99565b506001600160a01b031660009081526020819052604090206004015490565b336000908152602081905260409020600101546102f05760405162461bcd60e51b815260206004820152602760248201527f54686973207374616b696e6720666f7220746869732061646472657373206e6f6044820152661d08195e1a5cdd60ca1b606482015260840161020b565b60006102fb3361063e565b9050426000610309336101dc565b905060006103163361068c565b9050600061032333610233565b905061033c601861033687610e106107a4565b906107a4565b6103468486610c1f565b1015610592576203f48061035a8486610c1f565b106104c1576002546001600160a01b031663a9059cbb33610389612710610383876124b86107a4565b90610811565b6040516001600160e01b031960e085901b1681526001600160a01b0390921660048301526024820152604401602060405180830381600087803b1580156103cf57600080fd5b505af11580156103e3573d6000803e3d6000fd5b505050506040513d601f19601f820116820180604052508101906104079190610b0c565b506002546001546001600160a01b039182169163a9059cbb911661043d610436612710610383886124b86107a4565b869061086a565b6040516001600160e01b031960e085901b1681526001600160a01b0390921660048301526024820152604401602060405180830381600087803b15801561048357600080fd5b505af1158015610497573d6000803e3d6000fd5b505050506040513d601f19601f820116820180604052508101906104bb9190610b0c565b5061062e565b6002546001600160a01b031663a9059cbb336104e56127106103838761238c6107a4565b6040516001600160e01b031960e085901b1681526001600160a01b0390921660048301526024820152604401602060405180830381600087803b15801561052b57600080fd5b505af115801561053f573d6000803e3d6000fd5b505050506040513d601f19601f820116820180604052508101906105639190610b0c565b506002546001546001600160a01b039182169163a9059cbb911661043d6104366127106103838861238c6107a4565b6002546001600160a01b031663a9059cbb336105ae85856108c0565b6040516001600160e01b031960e085901b1681526001600160a01b0390921660048301526024820152604401602060405180830381600087803b1580156105f457600080fd5b505af1158015610608573d6000803e3d6000fd5b505050506040513d601f19601f8201168201806040525081019061062c9190610b0c565b505b61063733610915565b5050505050565b3360009081526020819052604081206001015461066d5760405162461bcd60e51b815260040161020b90610b99565b506001600160a01b031660009081526020819052604090206002015490565b336000908152602081905260408120600101546106bb5760405162461bcd60e51b815260040161020b90610b99565b506001600160a01b031660009081526020819052604090206003015490565b336000908152602081905260409020600101541561070a5760405162461bcd60e51b815260040161020b90610b4d565b6002546040516323b872dd60e01b8152336004820152306024820152604481018390526001600160a01b03909116906323b872dd90606401602060405180830381600087803b15801561075c57600080fd5b505af1158015610770573d6000803e3d6000fd5b505050506040513d601f19601f820116820180604052508101906107949190610b0c565b506107a03383836109b4565b5050565b60008115806107c8575082826107ba8183610c00565b92506107c69083610be0565b145b61080b5760405162461bcd60e51b815260206004820152601460248201527364732d6d6174682d6d756c2d6f766572666c6f7760601b604482015260640161020b565b92915050565b60008082116108595760405162461bcd60e51b815260206004820152601460248201527364732d6d6174682d6d756c2d6f766572666c6f7760601b604482015260640161020b565b6108638284610be0565b9392505050565b6000826108778382610c1f565b915081111561080b5760405162461bcd60e51b815260206004820152601560248201527464732d6d6174682d7375622d756e646572666c6f7760581b604482015260640161020b565b6000826108cd8382610bc8565b915081101561080b5760405162461bcd60e51b815260206004820152601460248201527364732d6d6174682d6164642d6f766572666c6f7760601b604482015260640161020b565b336000908152602081905260409020600101546109745760405162461bcd60e51b815260206004820152601760248201527f546869732061646472657373206e6f742065786973742e000000000000000000604482015260640161020b565b6001600160a01b0316600090815260208190526040812080546001600160a01b031916815560018101829055600281018290556003810182905560040155565b33600090815260208190526040902060010154156109e45760405162461bcd60e51b815260040161020b90610b4d565b60006109f08383610a63565b6040805160a0810182526001600160a01b0396871680825242602080840191825283850198895260608401978852608084019586526000928352829052929020905181546001600160a01b0319169716969096178655516001860155925160028501555051600383015551600490910155565b6000610a766127106103838460786107a4565b90508260071415610a865761080b565b82601e1415610abc57610ab5610aa4612710610383856101f46107a4565b610aaf8360046107a4565b906108c0565b905061080b565b82605a141561080b57610863610ada612710610383856107d06107a4565b610aaf83600d6107a4565b600060208284031215610af6578081fd5b81356001600160a01b0381168114610863578182fd5b600060208284031215610b1d578081fd5b81518015158114610863578182fd5b60008060408385031215610b3e578081fd5b50508035926020909101359150565b6020808252602c908201527f54686973207374616b696e6720666f722074686973206164647265737320616c60408201526b3932b0b23c9032bc34b9ba1760a11b606082015260800190565b602080825260159082015274151a1a5cc81cdd185ad95c881b9bdd08195e1a5cdd605a1b604082015260600190565b60008219821115610bdb57610bdb610c36565b500190565b600082610bfb57634e487b7160e01b81526012600452602481fd5b500490565b6000816000190483118215151615610c1a57610c1a610c36565b500290565b600082821015610c3157610c31610c36565b500390565b634e487b7160e01b600052601160045260246000fdfea2646970667358221220ef08dc6c0f28cbdc4cdc14508e5dff07172731eb4d5de108193eff2a9c6601af64736f6c63430008040033",
  "linkReferences": {},
  "deployedLinkReferences": {}
}